{
  "_format": "hh-sol-artifact-1",
  "contractName": "Lottery",
  "sourceName": "contracts/Lottery.sol",
  "abi": [
    {
      "anonymous": false,
      "inputs": [
        {
          "indexed": true,
          "internalType": "address",
          "name": "player",
          "type": "address"
        },
        {
          "indexed": true,
          "internalType": "uint256",
          "name": "betNumber",
          "type": "uint256"
        }
      ],
      "name": "Bet",
      "type": "event"
    },
    {
      "anonymous": false,
      "inputs": [
        {
          "indexed": true,
          "internalType": "address",
          "name": "winner",
          "type": "address"
        },
        {
          "indexed": true,
          "internalType": "uint256",
          "name": "reward",
          "type": "uint256"
        }
      ],
      "name": "ClaimReward",
      "type": "event"
    },
    {
      "anonymous": false,
      "inputs": [
        {
          "indexed": true,
          "internalType": "bytes32",
          "name": "role",
          "type": "bytes32"
        },
        {
          "indexed": true,
          "internalType": "bytes32",
          "name": "previousAdminRole",
          "type": "bytes32"
        },
        {
          "indexed": true,
          "internalType": "bytes32",
          "name": "newAdminRole",
          "type": "bytes32"
        }
      ],
      "name": "RoleAdminChanged",
      "type": "event"
    },
    {
      "anonymous": false,
      "inputs": [
        {
          "indexed": true,
          "internalType": "bytes32",
          "name": "role",
          "type": "bytes32"
        },
        {
          "indexed": true,
          "internalType": "address",
          "name": "account",
          "type": "address"
        },
        {
          "indexed": true,
          "internalType": "address",
          "name": "sender",
          "type": "address"
        }
      ],
      "name": "RoleGranted",
      "type": "event"
    },
    {
      "anonymous": false,
      "inputs": [
        {
          "indexed": true,
          "internalType": "bytes32",
          "name": "role",
          "type": "bytes32"
        },
        {
          "indexed": true,
          "internalType": "address",
          "name": "account",
          "type": "address"
        },
        {
          "indexed": true,
          "internalType": "address",
          "name": "sender",
          "type": "address"
        }
      ],
      "name": "RoleRevoked",
      "type": "event"
    },
    {
      "anonymous": false,
      "inputs": [
        {
          "indexed": false,
          "internalType": "bool",
          "name": "isStop",
          "type": "bool"
        }
      ],
      "name": "Stop",
      "type": "event"
    },
    {
      "inputs": [],
      "name": "DEALER",
      "outputs": [
        {
          "internalType": "bytes32",
          "name": "",
          "type": "bytes32"
        }
      ],
      "stateMutability": "view",
      "type": "function"
    },
    {
      "inputs": [],
      "name": "DEFAULT_ADMIN_ROLE",
      "outputs": [
        {
          "internalType": "bytes32",
          "name": "",
          "type": "bytes32"
        }
      ],
      "stateMutability": "view",
      "type": "function"
    },
    {
      "inputs": [
        {
          "internalType": "uint256",
          "name": "_betNumber",
          "type": "uint256"
        }
      ],
      "name": "bet",
      "outputs": [],
      "stateMutability": "nonpayable",
      "type": "function"
    },
    {
      "inputs": [],
      "name": "betAmount",
      "outputs": [
        {
          "internalType": "uint256",
          "name": "",
          "type": "uint256"
        }
      ],
      "stateMutability": "view",
      "type": "function"
    },
    {
      "inputs": [],
      "name": "claimReward",
      "outputs": [],
      "stateMutability": "nonpayable",
      "type": "function"
    },
    {
      "inputs": [],
      "name": "fee",
      "outputs": [
        {
          "internalType": "int128",
          "name": "",
          "type": "int128"
        }
      ],
      "stateMutability": "view",
      "type": "function"
    },
    {
      "inputs": [
        {
          "internalType": "bytes32",
          "name": "role",
          "type": "bytes32"
        }
      ],
      "name": "getRoleAdmin",
      "outputs": [
        {
          "internalType": "bytes32",
          "name": "",
          "type": "bytes32"
        }
      ],
      "stateMutability": "view",
      "type": "function"
    },
    {
      "inputs": [
        {
          "internalType": "bytes32",
          "name": "role",
          "type": "bytes32"
        },
        {
          "internalType": "address",
          "name": "account",
          "type": "address"
        }
      ],
      "name": "grantRole",
      "outputs": [],
      "stateMutability": "nonpayable",
      "type": "function"
    },
    {
      "inputs": [
        {
          "internalType": "bytes32",
          "name": "role",
          "type": "bytes32"
        },
        {
          "internalType": "address",
          "name": "account",
          "type": "address"
        }
      ],
      "name": "hasRole",
      "outputs": [
        {
          "internalType": "bool",
          "name": "",
          "type": "bool"
        }
      ],
      "stateMutability": "view",
      "type": "function"
    },
    {
      "inputs": [
        {
          "internalType": "contract IERC20Upgradeable",
          "name": "_token",
          "type": "address"
        },
        {
          "internalType": "uint256",
          "name": "_betAmount",
          "type": "uint256"
        },
        {
          "internalType": "uint256",
          "name": "_maxPlayer",
          "type": "uint256"
        }
      ],
      "name": "initialize",
      "outputs": [],
      "stateMutability": "nonpayable",
      "type": "function"
    },
    {
      "inputs": [],
      "name": "isStop",
      "outputs": [
        {
          "internalType": "bool",
          "name": "",
          "type": "bool"
        }
      ],
      "stateMutability": "view",
      "type": "function"
    },
    {
      "inputs": [
        {
          "internalType": "address",
          "name": "_player",
          "type": "address"
        }
      ],
      "name": "isWinner",
      "outputs": [
        {
          "internalType": "bool",
          "name": "",
          "type": "bool"
        }
      ],
      "stateMutability": "view",
      "type": "function"
    },
    {
      "inputs": [],
      "name": "lotteryResult",
      "outputs": [
        {
          "internalType": "uint256",
          "name": "",
          "type": "uint256"
        }
      ],
      "stateMutability": "view",
      "type": "function"
    },
    {
      "inputs": [],
      "name": "maxPlayer",
      "outputs": [
        {
          "internalType": "uint256",
          "name": "",
          "type": "uint256"
        }
      ],
      "stateMutability": "view",
      "type": "function"
    },
    {
      "inputs": [
        {
          "internalType": "bytes32",
          "name": "role",
          "type": "bytes32"
        },
        {
          "internalType": "address",
          "name": "account",
          "type": "address"
        }
      ],
      "name": "renounceRole",
      "outputs": [],
      "stateMutability": "nonpayable",
      "type": "function"
    },
    {
      "inputs": [
        {
          "internalType": "bytes32",
          "name": "role",
          "type": "bytes32"
        },
        {
          "internalType": "address",
          "name": "account",
          "type": "address"
        }
      ],
      "name": "revokeRole",
      "outputs": [],
      "stateMutability": "nonpayable",
      "type": "function"
    },
    {
      "inputs": [],
      "name": "stopGame",
      "outputs": [],
      "stateMutability": "nonpayable",
      "type": "function"
    },
    {
      "inputs": [
        {
          "internalType": "bytes4",
          "name": "interfaceId",
          "type": "bytes4"
        }
      ],
      "name": "supportsInterface",
      "outputs": [
        {
          "internalType": "bool",
          "name": "",
          "type": "bool"
        }
      ],
      "stateMutability": "view",
      "type": "function"
    },
    {
      "inputs": [],
      "name": "token",
      "outputs": [
        {
          "internalType": "contract IERC20Upgradeable",
          "name": "",
          "type": "address"
        }
      ],
      "stateMutability": "view",
      "type": "function"
    },
    {
      "inputs": [
        {
          "internalType": "address",
          "name": "",
          "type": "address"
        }
      ],
      "name": "winners",
      "outputs": [
        {
          "internalType": "uint256",
          "name": "",
          "type": "uint256"
        }
      ],
      "stateMutability": "view",
      "type": "function"
    }
  ],
  "bytecode": "0x608060405234801561001057600080fd5b50611a0e806100206000396000f3fe608060405234801561001057600080fd5b506004361061012c5760003560e01c806383bd72ba116100ad578063b88a802f11610071578063b88a802f1461028c578063d24257c014610294578063d547741f1461029d578063ddca3f43146102b0578063fc0c546a146102d557600080fd5b806383bd72ba1461023157806391d148541461023957806397779e1b1461024c5780639d9ca28d14610259578063a217fddf1461028457600080fd5b80635bcaa0a8116100f45780635bcaa0a8146101d95780636426b1e4146101e25780636bd5450a146101eb5780637365870b1461020b5780637a1ac61e1461021e57600080fd5b806301ffc9a714610131578063248a9ca3146101595780632f2ff15d1461018a57806336568abe1461019f5780634056845a146101b2575b600080fd5b61014461013f366004611788565b610300565b60405190151581526020015b60405180910390f35b61017c610167366004611741565b60009081526065602052604090206001015490565b604051908152602001610150565b61019d610198366004611759565b610337565b005b61019d6101ad366004611759565b610362565b61017c7f31fec149acb2a6e0b1854d0fdb3f23210598a76b4f5f5d9f688154dbc523766f81565b61017c60cd5481565b61017c60cc5481565b61017c6101f9366004611705565b60d16020526000908152604090205481565b61019d610219366004611741565b6103e5565b61019d61022c3660046117b0565b610607565b61019d610730565b610144610247366004611759565b610abf565b60c9546101449060ff1681565b610144610267366004611705565b6001600160a01b0316600090815260d16020526040902054151590565b61017c600081565b61019d610aea565b61017c60cb5481565b61019d6102ab366004611759565b610cbe565b60c9546102c2906101009004600f0b81565b604051600f9190910b8152602001610150565b60ca546102e8906001600160a01b031681565b6040516001600160a01b039091168152602001610150565b60006001600160e01b03198216637965db0b60e01b148061033157506301ffc9a760e01b6001600160e01b03198316145b92915050565b6000828152606560205260409020600101546103538133610ce4565b61035d8383610d48565b505050565b6001600160a01b03811633146103d75760405162461bcd60e51b815260206004820152602f60248201527f416363657373436f6e74726f6c3a2063616e206f6e6c792072656e6f756e636560448201526e103937b632b9903337b91039b2b63360891b60648201526084015b60405180910390fd5b6103e18282610dce565b5050565b60c95460ff161561042b5760405162461bcd60e51b815260206004820152601060248201526f151a194819d85b59481cdd1bdc1c195960821b60448201526064016103ce565b61043660ce33610e35565b1561047c5760405162461bcd60e51b8152602060048201526016602482015275141b185e595c881a185cc8185b1c9958591e4818995d60521b60448201526064016103ce565b60cc5461048960ce610e5a565b106104d65760405162461bcd60e51b815260206004820152601760248201527f4e756d62657220706c617965727320657863656564656400000000000000000060448201526064016103ce565b6105007f31fec149acb2a6e0b1854d0fdb3f23210598a76b4f5f5d9f688154dbc523766f33610abf565b1561054d5760405162461bcd60e51b815260206004820152601a60248201527f4465616c65722063616e206e6f74206265206120706c6179657200000000000060448201526064016103ce565b80606310156105935760405162461bcd60e51b815260206004820152601260248201527124b73b30b634b2103132ba10373ab6b132b960711b60448201526064016103ce565b61059e60ce33610e64565b50600081815260d0602052604090206105b79033610e64565b5060cb5460ca546105d7916001600160a01b039091169033903090610e79565b604051819033907fc0ae20ffbb1eca06a840c35912bdb9f8e6e1fad1f028c875be0ddf54d480d71e90600090a350565b600054610100900460ff166106225760005460ff1615610626565b303b155b6106895760405162461bcd60e51b815260206004820152602e60248201527f496e697469616c697a61626c653a20636f6e747261637420697320616c72656160448201526d191e481a5b9a5d1a585b1a5e995960921b60648201526084016103ce565b600054610100900460ff161580156106ab576000805461ffff19166101011790555b6106b3610ed3565b6106be600033610f40565b60ca80546001600160a01b0319166001600160a01b03861617905560cb83905560cc8290556106ef6001600a610f4a565b60c960016101000a8154816001600160801b030219169083600f0b6001600160801b03160217905550801561072a576000805461ff00191690555b50505050565b60c95460ff16156107765760405162461bcd60e51b815260206004820152601060248201526f151a194819d85b59481cdd1bdc1c195960821b60448201526064016103ce565b6107a07f31fec149acb2a6e0b1854d0fdb3f23210598a76b4f5f5d9f688154dbc523766f33610abf565b6107d95760405162461bcd60e51b815260206004820152600a6024820152692737ba103232b0b632b960b11b60448201526064016103ce565b6002609754141561082c5760405162461bcd60e51b815260206004820152601f60248201527f5265656e7472616e637947756172643a207265656e7472616e742063616c6c0060448201526064016103ce565b600260975560ca546040516370a0823160e01b81523060048201526000916001600160a01b0316906370a082319060240160206040518083038186803b15801561087557600080fd5b505afa158015610889573d6000803e3d6000fd5b505050506040513d601f19601f820116820180604052508101906108ad91906117e4565b60c9805460ff19166001179055905060006108c9606443611980565b60cd819055600081815260d060205260408120919250906108e990610e5a565b90508061097a5760ca5460405163a9059cbb60e01b8152336004820152602481018590526001600160a01b039091169063a9059cbb90604401602060405180830381600087803b15801561093c57600080fd5b505af1158015610950573d6000803e3d6000fd5b505050506040513d601f19601f820116820180604052508101906109749190611721565b50610a79565b6000610984610f8a565b905060006109928583611023565b60ca5460405163a9059cbb60e01b8152336004820152602481018590529192506001600160a01b03169063a9059cbb90604401602060405180830381600087803b1580156109df57600080fd5b505af11580156109f3573d6000803e3d6000fd5b505050506040513d601f19601f82011682018060405250810190610a179190611721565b5060005b83811015610a7557610a2d828561102f565b600086815260d06020526040812060d19190610a49908561103b565b6001600160a01b0316815260208101919091526040016000205580610a6d81611965565b915050610a1b565b5050505b60c95460405160ff909116151581527f37ea353e72235f772fd62f85e30df5542f0ed1ae398e167a3851010729e549149060200160405180910390a15050600160975550565b60009182526065602090815260408084206001600160a01b0393909316845291905290205460ff1690565b60026097541415610b3d5760405162461bcd60e51b815260206004820152601f60248201527f5265656e7472616e637947756172643a207265656e7472616e742063616c6c0060448201526064016103ce565b600260975560c95460ff161515600114610b995760405162461bcd60e51b815260206004820152601c60248201527f5468652067616d6520686173206e6f742073746f70706564207965740000000060448201526064016103ce565b33600090815260d16020526040902054610bec5760405162461bcd60e51b8152602060048201526014602482015273496e73756666696369656e742062616c616e636560601b60448201526064016103ce565b33600081815260d16020526040808220805492905560ca54905163a9059cbb60e01b815260048101939093526024830182905290916001600160a01b039091169063a9059cbb90604401602060405180830381600087803b158015610c5057600080fd5b505af1158015610c64573d6000803e3d6000fd5b505050506040513d601f19601f82011682018060405250810190610c889190611721565b50604051819033907fba8de60c3403ec381d1d484652ea1980e3c3e56359195c92525bff4ce47ad98e90600090a3506001609755565b600082815260656020526040902060010154610cda8133610ce4565b61035d8383610dce565b610cee8282610abf565b6103e157610d06816001600160a01b03166014611047565b610d11836020611047565b604051602001610d22929190611818565b60408051601f198184030181529082905262461bcd60e51b82526103ce9160040161188d565b610d528282610abf565b6103e15760008281526065602090815260408083206001600160a01b03851684529091529020805460ff19166001179055610d8a3390565b6001600160a01b0316816001600160a01b0316837f2f8788117e7eff1d82e926ec794901d17c78024a50270940304540a733656f0d60405160405180910390a45050565b610dd88282610abf565b156103e15760008281526065602090815260408083206001600160a01b0385168085529252808320805460ff1916905551339285917ff6391f5c32d9c69d2a47ea670b442974b53935d1edc7fd64eb21e047a839171b9190a45050565b6001600160a01b038116600090815260018301602052604081205415155b9392505050565b6000610331825490565b6000610e53836001600160a01b038416611229565b604080516001600160a01b0385811660248301528416604482015260648082018490528251808303909101815260849091019091526020810180516001600160e01b03166323b872dd60e01b17905261072a908590611278565b600054610100900460ff16610f3e5760405162461bcd60e51b815260206004820152602b60248201527f496e697469616c697a61626c653a20636f6e7472616374206973206e6f74206960448201526a6e697469616c697a696e6760a81b60648201526084016103ce565b565b6103e18282610d48565b600081610f5657600080fd5b6000610f62848461134a565b90506f7fffffffffffffffffffffffffffffff6001600160801b0382161115610e5357600080fd5b60c95460ca546040516370a0823160e01b815230600482015260009261101e92610100909104600f0b916001600160a01b03909116906370a082319060240160206040518083038186803b158015610fe157600080fd5b505afa158015610ff5573d6000803e3d6000fd5b505050506040513d601f19601f8201168201806040525081019061101991906117e4565b6114e4565b905090565b6000610e53828461190b565b6000610e5382846118d8565b6000610e53838361154c565b606060006110568360026118ec565b6110619060026118c0565b67ffffffffffffffff81111561108757634e487b7160e01b600052604160045260246000fd5b6040519080825280601f01601f1916602001820160405280156110b1576020820181803683370190505b509050600360fc1b816000815181106110da57634e487b7160e01b600052603260045260246000fd5b60200101906001600160f81b031916908160001a905350600f60fb1b8160018151811061111757634e487b7160e01b600052603260045260246000fd5b60200101906001600160f81b031916908160001a905350600061113b8460026118ec565b6111469060016118c0565b90505b60018111156111da576f181899199a1a9b1b9c1cb0b131b232b360811b85600f166010811061118857634e487b7160e01b600052603260045260246000fd5b1a60f81b8282815181106111ac57634e487b7160e01b600052603260045260246000fd5b60200101906001600160f81b031916908160001a90535060049490941c936111d38161194e565b9050611149565b508315610e535760405162461bcd60e51b815260206004820181905260248201527f537472696e67733a20686578206c656e67746820696e73756666696369656e7460448201526064016103ce565b600081815260018301602052604081205461127057508154600181810184556000848152602080822090930184905584548482528286019093526040902091909155610331565b506000610331565b60006112cd826040518060400160405280602081526020017f5361666545524332303a206c6f772d6c6576656c2063616c6c206661696c6564815250856001600160a01b03166115849092919063ffffffff16565b80519091501561035d57808060200190518101906112eb9190611721565b61035d5760405162461bcd60e51b815260206004820152602a60248201527f5361666545524332303a204552433230206f7065726174696f6e20646964206e6044820152691bdd081cdd58d8d9595960b21b60648201526084016103ce565b60008161135657600080fd5b60006001600160c01b03841161138f5782604085901b8161138757634e487b7160e01b600052601260045260246000fd5b0490506114d0565b60c084811c64010000000081106113a8576020918201911c5b6201000081106113ba576010918201911c5b61010081106113cb576008918201911c5b601081106113db576004918201911c5b600481106113eb576002918201911c5b600281106113fa576001820191505b60bf820360018603901c6001018260ff0387901b8161142957634e487b7160e01b600052601260045260246000fd5b0492506001600160801b0383111561144057600080fd5b608085901c83026001600160801b038616840260c088901c604089901b8281101561146c576001820391505b608084901b92900382811015611483576001820391505b829003608084901c82146114a757634e487b7160e01b600052600160045260246000fd5b8881816114c457634e487b7160e01b600052601260045260246000fd5b04870196505050505050505b6001600160801b03811115610e5357600080fd5b6000816114f357506000610331565b600083600f0b121561150457600080fd5b600f83900b6001600160801b038316810260401c90608084901c026001600160c01b0381111561153357600080fd5b60401b811981111561154457600080fd5b019392505050565b600082600001828154811061157157634e487b7160e01b600052603260045260246000fd5b9060005260206000200154905092915050565b6060611593848460008561159b565b949350505050565b6060824710156115fc5760405162461bcd60e51b815260206004820152602660248201527f416464726573733a20696e73756666696369656e742062616c616e636520666f6044820152651c8818d85b1b60d21b60648201526084016103ce565b6001600160a01b0385163b6116535760405162461bcd60e51b815260206004820152601d60248201527f416464726573733a2063616c6c20746f206e6f6e2d636f6e747261637400000060448201526064016103ce565b600080866001600160a01b0316858760405161166f91906117fc565b60006040518083038185875af1925050503d80600081146116ac576040519150601f19603f3d011682016040523d82523d6000602084013e6116b1565b606091505b50915091506116c18282866116cc565b979650505050505050565b606083156116db575081610e53565b8251156116eb5782518084602001fd5b8160405162461bcd60e51b81526004016103ce919061188d565b600060208284031215611716578081fd5b8135610e53816119c0565b600060208284031215611732578081fd5b81518015158114610e53578182fd5b600060208284031215611752578081fd5b5035919050565b6000806040838503121561176b578081fd5b82359150602083013561177d816119c0565b809150509250929050565b600060208284031215611799578081fd5b81356001600160e01b031981168114610e53578182fd5b6000806000606084860312156117c4578081fd5b83356117cf816119c0565b95602085013595506040909401359392505050565b6000602082840312156117f5578081fd5b5051919050565b6000825161180e818460208701611922565b9190910192915050565b7f416363657373436f6e74726f6c3a206163636f756e7420000000000000000000815260008351611850816017850160208801611922565b7001034b99036b4b9b9b4b733903937b6329607d1b6017918401918201528351611881816028840160208801611922565b01602801949350505050565b60208152600082518060208401526118ac816040850160208701611922565b601f01601f19169190910160400192915050565b600082198211156118d3576118d3611994565b500190565b6000826118e7576118e76119aa565b500490565b600081600019048311821515161561190657611906611994565b500290565b60008282101561191d5761191d611994565b500390565b60005b8381101561193d578181015183820152602001611925565b8381111561072a5750506000910152565b60008161195d5761195d611994565b506000190190565b600060001982141561197957611979611994565b5060010190565b60008261198f5761198f6119aa565b500690565b634e487b7160e01b600052601160045260246000fd5b634e487b7160e01b600052601260045260246000fd5b6001600160a01b03811681146119d557600080fd5b5056fea264697066735822122027649325b4573863e54ec96d96e083c8b7e52381a527da9d17e556dc9709f68e64736f6c63430008040033",
  "linkReferences": {},
  "deployedLinkReferences": {}
}