{
  "_format": "hh-sol-artifact-1",
  "contractName": "MockERC20",
  "sourceName": "contracts/mock/MockERC20.sol",
  "abi": [
    {
      "inputs": [],
      "stateMutability": "nonpayable",
      "type": "constructor"
    },
    {
      "anonymous": false,
      "inputs": [
        {
          "indexed": true,
          "internalType": "address",
          "name": "owner",
          "type": "address"
        },
        {
          "indexed": true,
          "internalType": "address",
          "name": "spender",
          "type": "address"
        },
        {
          "indexed": false,
          "internalType": "uint256",
          "name": "value",
          "type": "uint256"
        }
      ],
      "name": "Approval",
      "type": "event"
    },
    {
      "anonymous": false,
      "inputs": [
        {
          "indexed": true,
          "internalType": "address",
          "name": "claimer",
          "type": "address"
        }
      ],
      "name": "ClaimToken",
      "type": "event"
    },
    {
      "anonymous": false,
      "inputs": [
        {
          "indexed": true,
          "internalType": "address",
          "name": "from",
          "type": "address"
        },
        {
          "indexed": true,
          "internalType": "address",
          "name": "to",
          "type": "address"
        },
        {
          "indexed": false,
          "internalType": "uint256",
          "name": "value",
          "type": "uint256"
        }
      ],
      "name": "Transfer",
      "type": "event"
    },
    {
      "inputs": [
        {
          "internalType": "address",
          "name": "owner",
          "type": "address"
        },
        {
          "internalType": "address",
          "name": "spender",
          "type": "address"
        }
      ],
      "name": "allowance",
      "outputs": [
        {
          "internalType": "uint256",
          "name": "",
          "type": "uint256"
        }
      ],
      "stateMutability": "view",
      "type": "function"
    },
    {
      "inputs": [
        {
          "internalType": "address",
          "name": "spender",
          "type": "address"
        },
        {
          "internalType": "uint256",
          "name": "amount",
          "type": "uint256"
        }
      ],
      "name": "approve",
      "outputs": [
        {
          "internalType": "bool",
          "name": "",
          "type": "bool"
        }
      ],
      "stateMutability": "nonpayable",
      "type": "function"
    },
    {
      "inputs": [
        {
          "internalType": "address",
          "name": "account",
          "type": "address"
        }
      ],
      "name": "balanceOf",
      "outputs": [
        {
          "internalType": "uint256",
          "name": "",
          "type": "uint256"
        }
      ],
      "stateMutability": "view",
      "type": "function"
    },
    {
      "inputs": [],
      "name": "claimMockToken",
      "outputs": [],
      "stateMutability": "nonpayable",
      "type": "function"
    },
    {
      "inputs": [],
      "name": "decimals",
      "outputs": [
        {
          "internalType": "uint8",
          "name": "",
          "type": "uint8"
        }
      ],
      "stateMutability": "view",
      "type": "function"
    },
    {
      "inputs": [
        {
          "internalType": "address",
          "name": "spender",
          "type": "address"
        },
        {
          "internalType": "uint256",
          "name": "subtractedValue",
          "type": "uint256"
        }
      ],
      "name": "decreaseAllowance",
      "outputs": [
        {
          "internalType": "bool",
          "name": "",
          "type": "bool"
        }
      ],
      "stateMutability": "nonpayable",
      "type": "function"
    },
    {
      "inputs": [
        {
          "internalType": "address",
          "name": "spender",
          "type": "address"
        },
        {
          "internalType": "uint256",
          "name": "addedValue",
          "type": "uint256"
        }
      ],
      "name": "increaseAllowance",
      "outputs": [
        {
          "internalType": "bool",
          "name": "",
          "type": "bool"
        }
      ],
      "stateMutability": "nonpayable",
      "type": "function"
    },
    {
      "inputs": [],
      "name": "name",
      "outputs": [
        {
          "internalType": "string",
          "name": "",
          "type": "string"
        }
      ],
      "stateMutability": "view",
      "type": "function"
    },
    {
      "inputs": [],
      "name": "symbol",
      "outputs": [
        {
          "internalType": "string",
          "name": "",
          "type": "string"
        }
      ],
      "stateMutability": "view",
      "type": "function"
    },
    {
      "inputs": [],
      "name": "totalSupply",
      "outputs": [
        {
          "internalType": "uint256",
          "name": "",
          "type": "uint256"
        }
      ],
      "stateMutability": "view",
      "type": "function"
    },
    {
      "inputs": [
        {
          "internalType": "address",
          "name": "to",
          "type": "address"
        },
        {
          "internalType": "uint256",
          "name": "amount",
          "type": "uint256"
        }
      ],
      "name": "transfer",
      "outputs": [
        {
          "internalType": "bool",
          "name": "",
          "type": "bool"
        }
      ],
      "stateMutability": "nonpayable",
      "type": "function"
    },
    {
      "inputs": [
        {
          "internalType": "address",
          "name": "from",
          "type": "address"
        },
        {
          "internalType": "address",
          "name": "to",
          "type": "address"
        },
        {
          "internalType": "uint256",
          "name": "amount",
          "type": "uint256"
        }
      ],
      "name": "transferFrom",
      "outputs": [
        {
          "internalType": "bool",
          "name": "",
          "type": "bool"
        }
      ],
      "stateMutability": "nonpayable",
      "type": "function"
    }
  ],
  "bytecode": "0x60806040523480156200001157600080fd5b50604080518082018252600a81526904d6f636b2045524332360b41b60208083019182528351808501909452600684526504d45524332360d41b9084015281519192916200006291600391620001a8565b50805162000078906004906020840190620001a8565b505050620000b53062000090620000bb60201b60201c565b620000a09060ff16600a620002b2565b620000af90620f42406200037d565b620000c0565b620003f2565b601290565b6001600160a01b0382166200011b5760405162461bcd60e51b815260206004820152601f60248201527f45524332303a206d696e7420746f20746865207a65726f206164647265737300604482015260640160405180910390fd5b80600260008282546200012f91906200024e565b90915550506001600160a01b038216600090815260208190526040812080548392906200015e9084906200024e565b90915550506040518181526001600160a01b038316906000907fddf252ad1be2c89b69c2b068fc378daa952ba7f163c4a11628f55a4df523b3ef9060200160405180910390a35050565b828054620001b6906200039f565b90600052602060002090601f016020900481019282620001da576000855562000225565b82601f10620001f557805160ff191683800117855562000225565b8280016001018555821562000225579182015b828111156200022557825182559160200191906001019062000208565b506200023392915062000237565b5090565b5b8082111562000233576000815560010162000238565b60008219821115620002645762000264620003dc565b500190565b600181815b80851115620002aa5781600019048211156200028e576200028e620003dc565b808516156200029c57918102915b93841c93908002906200026e565b509250929050565b6000620002c08383620002c7565b9392505050565b600082620002d85750600162000377565b81620002e75750600062000377565b81600181146200030057600281146200030b576200032b565b600191505062000377565b60ff8411156200031f576200031f620003dc565b50506001821b62000377565b5060208310610133831016604e8410600b841016171562000350575081810a62000377565b6200035c838362000269565b8060001904821115620003735762000373620003dc565b0290505b92915050565b60008160001904831182151516156200039a576200039a620003dc565b500290565b600181811c90821680620003b457607f821691505b60208210811415620003d657634e487b7160e01b600052602260045260246000fd5b50919050565b634e487b7160e01b600052601160045260246000fd5b610a3b80620004026000396000f3fe608060405234801561001057600080fd5b50600436106100b45760003560e01c80633950935111610071578063395093511461013857806370a082311461014b57806395d89b4114610174578063a457c2d71461017c578063a9059cbb1461018f578063dd62ed3e146101a257600080fd5b806306fdde03146100b9578063095ea7b3146100d7578063148e35fd146100fa57806318160ddd1461010457806323b872dd14610116578063313ce56714610129575b600080fd5b6100c16101db565b6040516100ce919061083f565b60405180910390f35b6100ea6100e5366004610816565b61026d565b60405190151581526020016100ce565b610102610287565b005b6002545b6040519081526020016100ce565b6100ea6101243660046107db565b6102d5565b604051601281526020016100ce565b6100ea610146366004610816565b6102f9565b610108610159366004610788565b6001600160a01b031660009081526020819052604090205490565b6100c1610338565b6100ea61018a366004610816565b610347565b6100ea61019d366004610816565b6103de565b6101086101b03660046107a9565b6001600160a01b03918216600090815260016020908152604080832093909416825291909152205490565b6060600380546101ea906109b4565b80601f0160208091040260200160405190810160405280929190818152602001828054610216906109b4565b80156102635780601f1061023857610100808354040283529160200191610263565b820191906000526020600020905b81548152906001019060200180831161024657829003601f168201915b5050505050905090565b60003361027b8185856103ec565b60019150505b92915050565b6102a830336102986012600a6108ed565b6102a3906064610995565b610510565b60405133907f1fd171e75d240179ad13a5936dfde323a384d3d2d59d1b2bb84e3f2cec544a9290600090a2565b6000336102e38582856106e0565b6102ee858585610510565b506001949350505050565b3360008181526001602090815260408083206001600160a01b038716845290915281205490919061027b9082908690610333908790610892565b6103ec565b6060600480546101ea906109b4565b3360008181526001602090815260408083206001600160a01b0387168452909152812054909190838110156103d15760405162461bcd60e51b815260206004820152602560248201527f45524332303a2064656372656173656420616c6c6f77616e63652062656c6f77604482015264207a65726f60d81b60648201526084015b60405180910390fd5b6102ee82868684036103ec565b60003361027b818585610510565b6001600160a01b03831661044e5760405162461bcd60e51b8152602060048201526024808201527f45524332303a20617070726f76652066726f6d20746865207a65726f206164646044820152637265737360e01b60648201526084016103c8565b6001600160a01b0382166104af5760405162461bcd60e51b815260206004820152602260248201527f45524332303a20617070726f766520746f20746865207a65726f206164647265604482015261737360f01b60648201526084016103c8565b6001600160a01b0383811660008181526001602090815260408083209487168084529482529182902085905590518481527f8c5be1e5ebec7d5bd14f71427d1e84f3dd0314c0f7b2291e5b200ac8c7c3b925910160405180910390a3505050565b6001600160a01b0383166105745760405162461bcd60e51b815260206004820152602560248201527f45524332303a207472616e736665722066726f6d20746865207a65726f206164604482015264647265737360d81b60648201526084016103c8565b6001600160a01b0382166105d65760405162461bcd60e51b815260206004820152602360248201527f45524332303a207472616e7366657220746f20746865207a65726f206164647260448201526265737360e81b60648201526084016103c8565b6001600160a01b0383166000908152602081905260409020548181101561064e5760405162461bcd60e51b815260206004820152602660248201527f45524332303a207472616e7366657220616d6f756e7420657863656564732062604482015265616c616e636560d01b60648201526084016103c8565b6001600160a01b03808516600090815260208190526040808220858503905591851681529081208054849290610685908490610892565b92505081905550826001600160a01b0316846001600160a01b03167fddf252ad1be2c89b69c2b068fc378daa952ba7f163c4a11628f55a4df523b3ef846040516106d191815260200190565b60405180910390a35b50505050565b6001600160a01b0383811660009081526001602090815260408083209386168352929052205460001981146106da578181101561075f5760405162461bcd60e51b815260206004820152601d60248201527f45524332303a20696e73756666696369656e7420616c6c6f77616e636500000060448201526064016103c8565b6106da84848484036103ec565b80356001600160a01b038116811461078357600080fd5b919050565b600060208284031215610799578081fd5b6107a28261076c565b9392505050565b600080604083850312156107bb578081fd5b6107c48361076c565b91506107d26020840161076c565b90509250929050565b6000806000606084860312156107ef578081fd5b6107f88461076c565b92506108066020850161076c565b9150604084013590509250925092565b60008060408385031215610828578182fd5b6108318361076c565b946020939093013593505050565b6000602080835283518082850152825b8181101561086b5785810183015185820160400152820161084f565b8181111561087c5783604083870101525b50601f01601f1916929092016040019392505050565b600082198211156108a5576108a56109ef565b500190565b600181815b808511156108e55781600019048211156108cb576108cb6109ef565b808516156108d857918102915b93841c93908002906108af565b509250929050565b60006107a2838360008261090357506001610281565b8161091057506000610281565b816001811461092657600281146109305761094c565b6001915050610281565b60ff841115610941576109416109ef565b50506001821b610281565b5060208310610133831016604e8410600b841016171561096f575081810a610281565b61097983836108aa565b806000190482111561098d5761098d6109ef565b029392505050565b60008160001904831182151516156109af576109af6109ef565b500290565b600181811c908216806109c857607f821691505b602082108114156109e957634e487b7160e01b600052602260045260246000fd5b50919050565b634e487b7160e01b600052601160045260246000fdfea26469706673582212202fcd22056987a2fcb248632a26422272323c365e361bdbfb639dfc4697e33e9064736f6c63430008040033",
  "linkReferences": {},
  "deployedLinkReferences": {}
}